:020000040000FA
:040000000FEF00F00E
:0400080052EF00F0C3
:0800180050EF00F0120093907C
:100020008190040E106E41EC00F00EEC00F015EF24
:1000300000F0050E106E41EC00F01200030E106E81
:1000400041EC00F01200010E1064020C020E10646C
:10005000030C030E1064050C040E1064060C050E50
:100060001064080C060E1064090C070E1064110CC5
:10007000080E1064120C090E1064130C100E10649C
:10008000150C510ED66E146E550E156E23EC00F045
:10009000155E15C013F0C30ED56EF28EF28A1200F3
:1000A00000001000F2A45CEF00F0F2948170135095
:0A00B00014C013F0D66E146E100099
:00000001FF
